:02000000C82C0A
:10000600831203132230FC00F801F901FA01FB0107
:10001600FC03031939280310FB0CFA0CF90CF80C35
:10002600F30CF20CF10CF00C031C0B28FC03031967
:100036002B287408F80775080318750FF907760852
:100046000318760FFA0777080318770FFB070F28B0
:100056007408F80775080318750FF907760803186A
:0E006600760FFA0777080318770FFB070800DC
:1000740083120313BA03BA033A08003C031847284F
:10008400BA030000000000003E2800000000000049
:060094000000000008005E
:10009A00403083120313F0001F30F100F201F30124
:0200AA0008004C
:1000AC0083120313FB01FA01F901F801A001730D8E
:1000BC00F80D7408F8027508031C750FF902760820
:1000CC00031C760FFA027708031C770FFB02000162
:1000DC00031C0130A002F30D0730FC00730DF80D6A
:1000EC00F90DFA0DFB0DA00D7408731C8F28F80286
:1000FC007508031C750FF9027608031C760FFA02BB
:10010C007708031C770FFB020001031C0130A002CF
:10011C00A028F80775080318750FF9077608031857
:10012C00760FFA0777080318770FFB0700010318FF
:10013C000130A007F30DFC0B7428720DF80DF90DAE
:10014C00FA0DFB0DA00D7408731CBE28F80275087F
:10015C00031C750FF9027608031C760FFA02770858
:10016C00031C770FFB020001031C0130A002CF28F7
:10017C00F80775080318750FF90776080318760F3A
:10018C00FA0777080318770FFB07000103180130F3
:10019C00A007F20D0730FC00720DF80DF90DFA0DE9
:1001AC00FB0DA00D7408721CED28F8027508031CD9
:1001BC00750FF9027608031C760FFA027708031CF8
:1001CC00770FFB020001031C0130A002FE28F80788
:1001DC0075080318750FF90776080318760FFA07D8
:1001EC0077080318770FFB07000103180130A007ED
:1001FC00F20DFC0BD228710DF80DF90DFA0DFB0D5B
:10020C00A00D7408721C1C29F8027508031C750FCC
:10021C00F9027608031C760FFA027708031C770F95
:10022C00FB020001031C0130A0022D29F807750800
:10023C000318750FF90776080318760FFA07770875
:10024C000318770FFB07000103180130A007F10D0D
:10025C000730FC00710DF80DF90DFA0DFB0DA00D1A
:10026C007408711C4B29F8027508031C750FF902F0
:10027C007608031C760FFA027708031C770FFB0233
:10028C000001031C0130A0025C29F8077508031853
:10029C00750FF90776080318760FFA077708031815
:1002AC00770FFB07000103180130A007F10DFC0BC1
:1002BC003029700DF80DF90DFA0DFB0DA00D740819
:1002CC00711C7A29F8027508031C750FF90276085F
:1002DC00031C760FFA027708031C770FFB02000150
:1002EC00031C0130A0028B29F80775080318750F41
:1002FC00F90776080318760FFA0777080318770FB3
:10030C00FB07000103180130A007F00D0730FC00BB
:10031C00700DF80DF90DFA0DFB0DA00D7408701C85
:10032C00A929F8027508031C750FF9027608031C3D
:10033C00760FFA027708031C770FFB020001031CEF
:10034C000130A002BA29F80775080318750FF907D0
:10035C0076080318760FFA0777080318770FFB0750
:10036C00000103180130A007F00DFC0B8E2970184A
:10037C00CD297408F80775080318750FF907760866
:10038C000318760FFA0777080318770FFB07080096
:10039C0083120313F801F9011030FC00710DF80DF4
:1003AC00F90D7408F8027508031C750FF90203188F
:1003BC00E6297408F80775080318750FF907031078
:0A03CC00F00DF10DFC0BD429080020
:1003D6004D20E830F4000330F500F601F701032064
:1003E6007008B6007108B7007208B8007308B90043
:1003F6002E08F4002F08F500F601F70156207008C4
:10040600B6007108B7007208B8007308B900700822
:10041600F5007108F6007208F7007308F800F80C8A
:10042600F70CF60CF50CF813F80CF70CF60CF50CAB
:10043600F8137508F0007608F1007708F2007808DE
:10044600F300F30CF20CF10CF00CF3137008B2008D
:100456007108B3004D203008F4003108F500F601AC
:10046600F70103203208F9003308FA00FB01FC010A
:100476000330F8007908F4007A08F5007B08F600E6
:100486007C08F700780803194F2AF40DF50DF60DD0
:10049600F70D7410FF3E462A56207008B600710804
:1004A600B7007208B8007308B9000A30F4000030CB
:1004B600F5003208F0003308F100CE217008B200D2
:1004C6007108B30000307102031D6B2A03307002FD
:1004D60003186E2ABB2A250884003908003C031D30
:1004E6007E2A3808003C031D7E2A3708003C031D7F
:1004F6007E2A3608003C0318B92A230880043308EC
:100506000319952AB401B50100303502031D8D2A61
:10051600330834020318952ABA013A20B40A03199B
:10052600B50A872A3208BA003A202408800533081B
:100536000319AD2AB401B50100303502031DA52A01
:10054600330834020318AD2ABA013A20B40A031953
:10055600B50A9F2A3208BA003A200130B602031CB7
:10056600B702031CB802031CB902702A24088005CE
:0205760008007B
:0E0578008312031322088A0021088200080063
:10058600831203132A08AE002B08AF002C08B00014
:100596002D08B100EB210D30FC00FB30FD00FD0BFA
:0C05A600D22AFC0BD22A00000000080042
:1005B200BC228A110A128000840AA10A0319A20A23
:0805C200F003031DD92A080013
:1005CA000B3083120313AA000230AB00C830AC0010
:1005DA00AD01C3220330FB008A30FC005530FD0018
:1005EA00FD0BF52AFC0BF52AFB0BF52A000000008F
:1005FA008830AA000130AB00C830AC00AD01C3227C
:10060A000330FB008A30FC005530FD00FD0B0B2B3C
:10061A00FC0B0B2BFB0B0B2B000000004A30AA0033
:10062A000130AB00C830AC00AD01C3220230FB0080
:10063A008630FC009930FD00FD0B212BFC0B212B91
:10064A00FB0B212BB830AA000130AB002C30AC00D8
:10065A000130AD00C322EE30AA000130AB002C30CD
:10066A00AC000130AD00C322B830AA000130AB00A3
:10067A002C30AC000130AD00C3229F30AA000130FB
:10068A00AB002C30AC000130AD00C322D230AA003E
:10069A000130AB002C30AC000130AD00C3229F30DA
:1006AA00AA000130AB002C30AC000130AD00C322EF
:1006BA008830AA000130AB009630AC00AD01C322ED
:1006CA004A30AA000130AB009630AC00AD01C3221B
:1006DA008830AA000130AB002030AC000330AD00F6
:1006EA00C3220630FB001330FC00AD30FD00FD0BC9
:1006FA007C2BFC0B7C2BFB0B7C2B000000000800E6
:10070A00C43083120313AA00AB019630AC00AD01CA
:10071A00C3220630AA000130AB009630AC00AD010E
:10072A00C3224A30AA000130AB009630AC00AD01BA
:10073A00C3228830AA000130AB009630AC00AD016C
:10074A00C3220B30AA000230AB009630AC00AD01D8
:10075A00C3229330AA000230AB009630AC00AD0140
:10076A00C3221030AA000330AB00C230AC00013003
:10077A00AD00C3229330AA000230AB00C230AC00F5
:10078A000130AD00C322D030AA00AB019630AC00D4
:10079A00AD01C3220630AA000130AB009630AC008E
:1007AA00AD01C3223730AA000130AB009630AC004D
:1007BA00AD01C3229F30AA000130AB009630AC00D5
:1007CA00AD01C3220B30AA000230AB009630AC0058
:1007DA00AD01C3226E30AA000230AB009630AC00E5
:1007EA00AD01C3223F30AA000330AB00C230AC00D7
:1007FA000130AD00C3226E30AA000230AB00C23015
:10080A00AC000130AD00C322E930AA00AB0196303A
:10081A00AC00AD01C3222630AA000130AB009630ED
:10082A00AC00AD01C3225D30AA000130AB009630A6
:10083A00AC00AD01C322D230AA000130AB00963021
:10084A00AC00AD01C3224B30AA000230AB00963097
:10085A00AC00AD01C322BA30AA000230AB00963018
:10086A00AC00AD01C322A430AA000330AB00C230F1
:10087A00AC000130AD00C322A430AA000330AB00A3
:10088A002C30AC000130AD00C322A430AA000330E2
:10089A00AB009630AC00AD01C3221730AA00043079
:1008AA00AB001A30AC000430AD00C3220630FB00A6
:1008BA001330FC00AD30FD00FD0B612CFC0B612CEC
:0A08CA00FB0B612C00000000080089
:1008D400933083120313AA000230AB009630AC00AD
:1008E400AD01C3221030AA000330AB009630AC0037
:1008F400AD01C3222730AA000530AB009630AC000E
:10090400AD01C3221730AA000430AB009630AC000E
:10091400AD01C3229730AA000430AB009630AC007E
:10092400AD01C3222030AA000630AB009630AC00E3
:10093400AD01C3220630FB001330FC00AD30FD00D6
:10094400FD0BA22CFC0BA22CFB0BA22C0000000024
:02095400080099
:10095600831203132808A5002908F1000130F000CE
:1009660071080319BA2CF00D7010FF3EB42C7008F4
:10097600A300F0097008A4008030280784007008DE
:0A0986008005841370088005080046
:10099000831603178901880183128813881BD22CC0
:1009A0008713D32C8717831603138617061787110F
:1009B00007308312A8000330A900AB247030AE00CA
:1009C0000330AF002C30B0000130B100EB21043017
:1009D000FB000C30FC003330FD00FD0BED2CFC0B5C
:1009E000ED2CFB0BED2C000000007030AE0003304E
:1009F000AF002C30B0000130B100EB210B30FB0018
:100A00002630FC005D30FD00FD0B042DFC0B042D99
:100A1000FB0B042D000000000030861B0130A600F7
:100A20000030061B0130A700270803191C2D2608DB
:100A3000031D1C2D6A242B2D2708031D242D260899
:100A40000319242DE5222B2D270803192B2D260809
:100A500003192B2D85230430FB000C30FC003330B0
:100A6000FD00FD0B312DFC0B312DFB0B312D00005A
:060A700000000C2D3A2DE0
:04400E00F22F000786
:00000001FF
