:02000000892B4A
:1000060083120313BD03BD033D08003C03181028EB
:10001600BD030000000000000728000000000000EB
:06002600000000000800CC
:10002C0083120313F801F9011030FC00710DF80D67
:10003C00F90D7408F8027508031C750FF902031802
:10004C002E287408F80775080318750FF9070310A4
:0A005C00F00DF10DFC0B1C2808004C
:1000660083120313FB01FA01F901F801A001730DD4
:10007600F80D7408F8027508031C750FF902760866
:10008600031C760FFA027708031C770FFB020001A8
:10009600031C0130A002F30D0730FC00730DF80DB0
:1000A600F90DFA0DFB0DA00D7408731C6C28F802EF
:1000B6007508031C750FF9027608031C760FFA0201
:1000C6007708031C770FFB020001031C0130A00216
:1000D6007D28F80775080318750FF90776080318C1
:1000E600760FFA0777080318770FFB070001031846
:1000F6000130A007F30DFC0B5128720DF80DF90D18
:10010600FA0DFB0DA00D7408731C9B28F8027508E8
:10011600031C750FF9027608031C760FFA0277089E
:10012600031C770FFB020001031C0130A002AC2860
:10013600F80775080318750FF90776080318760F80
:10014600FA0777080318770FFB0700010318013039
:10015600A007F20D0730FC00720DF80DF90DFA0D2F
:10016600FB0DA00D7408721CCA28F8027508031C42
:10017600750FF9027608031C760FFA027708031C3E
:10018600770FFB020001031C0130A002DB28F807F1
:1001960075080318750FF90776080318760FFA071E
:1001A60077080318770FFB07000103180130A00733
:1001B600F20DFC0BAF28710DF80DF90DFA0DFB0DC4
:1001C600A00D7408721CF928F8027508031C750F37
:1001D600F9027608031C760FFA027708031C770FDC
:1001E600FB020001031C0130A0020A29F80775086A
:1001F6000318750FF90776080318760FFA077708BC
:100206000318770FFB07000103180130A007F10D53
:100216000730FC00710DF80DF90DFA0DFB0DA00D60
:100226007408711C2829F8027508031C750FF90259
:100236007608031C760FFA027708031C770FFB0279
:100246000001031C0130A0023929F80775080318BC
:10025600750FF90776080318760FFA07770803185B
:10026600770FFB07000103180130A007F10DFC0B07
:100276000D29700DF80DF90DFA0DFB0DA00D740882
:10028600711C5729F8027508031C750FF9027608C8
:10029600031C760FFA027708031C770FFB02000196
:1002A600031C0130A0026829F80775080318750FAA
:1002B600F90776080318760FFA0777080318770FF9
:1002C600FB07000103180130A007F00D0730FC0002
:1002D600700DF80DF90DFA0DFB0DA00D7408701CCC
:1002E6008629F8027508031C750FF9027608031CA7
:1002F600760FFA027708031C770FFB020001031C36
:100306000130A0029729F80775080318750FF90739
:1003160076080318760FFA0777080318770FFB0796
:10032600000103180130A007F00DFC0B6B297018B3
:10033600AA297408F80775080318750FF9077608CF
:100346000318760FFA0777080318770FFB070800DC
:10035600831203132230FC00F801F901FA01FB01B4
:10036600FC030319E1290310FB0CFA0CF90CF80C39
:10037600F30CF20CF10CF00C031CB329FC0303196B
:10038600D3297408F80775080318750FF907760856
:100396000318760FFA0777080318770FFB07B729B4
:1003A6007408F80775080318750FF9077608031817
:0E03B600760FFA0777080318770FFB07080089
:1003C400403083120313F0001F30F100F201F301F7
:0203D40008001F
:1003D600E221E830F4000330F500F601F701AB2125
:1003E6007008B9007108BA007208BB007308BC0037
:1003F6003108F4003208F500F601F70133207008E1
:10040600B9007108BA007208BB007308BC00700816
:10041600F5007108F6007208F7007308F800F80C8A
:10042600F70CF60CF50CF813F80CF70CF60CF50CAB
:10043600F8137508F0007608F1007708F2007808DE
:10044600F300F30CF20CF10CF00CF3137008B5008A
:100456007108B600E2213308F4003408F500F6010D
:10046600F701AB213508F9003608FA00FB01FC015B
:100476000330F8007908F4007A08F5007B08F600E6
:100486007C08F700780803194F2AF40DF50DF60DD0
:10049600F70D7410FF3E462A33207008B900710824
:1004A600BA007208BB007308BC000A30F4000030C2
:1004B600F5003508F0003608F10016207008B50082
:1004C6007108B60000307102031D6B2A03307002FA
:1004D60003186E2ABB2A240884003C08003C031D2E
:1004E6007E2A3B08003C031D7E2A3A08003C031D79
:1004F6007E2A3908003C0318B92A250880043608E4
:100506000319952AB701B80100303802031D8D2A58
:10051600360837020318952ABD010320B70A0319C6
:10052600B80A872A3508BD00032026088005360844
:100536000319AD2AB701B80100303802031DA52AF8
:10054600360837020318AD2ABD010320B70A03197E
:10055600B80A9F2A3508BD0003200130B902031CE2
:10056600BA02031CBB02031CBC02702A26088005C3
:0205760008007B
:0E0578008312031323088A0022088200080061
:10058600023083120313FC004930FD00FD0BC92A1B
:0A059600FC0BC92A00000000080059
:1005A000831203132D08B1002E08B2002F08B300E8
:1005B0003008B400EB210D30FC00FB30FD00FD0BDA
:0C05C000DF2AFC0BDF2A0000000008000E
:1005CC00933083120313AD000230AE009630AF00AF
:1005DC00B001D0221030AD000330AE009630AF0029
:1005EC00B001D0222730AD000530AE009630AF0000
:1005FC00B001D0221730AD000430AE009630AF0001
:10060C00B001D0229730AD000430AE009630AF0070
:10061C00B001D0222030AD000630AE009630AF00D5
:10062C00B001D0220630FB001330FC00AD30FD00D1
:10063C00FD0B1E2BFC0B1E2BFB0B1E2B00000000BE
:02064C000800A4
:10064E0083120313AC012808F1000130F000710889
:10065E000319352BF00D7010FF3E2F2B7008AB00D9
:10066E002708840070080005F10071080130031D91
:10067E000030F0002A08F00603195D2B2908003C13
:10068E0003184D2BC322C322A903452B2708840030
:10069E002B080005F10071080130031D0030F00039
:1006AE002A08F00603195D2BFF30AC002C08F00071
:0206BE00080032
:1006C000BC228A110A128000840AA20A0319A30A12
:0806D000F003031D602B08007C
:1006D800831203132708A4002808F1000130F00052
:1006E800710803197B2BF00D7010FF3E752B7008F5
:1006F800A500F0097008A60080302707840070085C
:0A07080080058413700880050800C6
:1007120083120313A101831603178901880183122F
:100722008813881B962B8713972B8717831603131F
:100732008617871107308312A7000330A8006C23A5
:100742007030B1000330B2002C30B3000130B4007D
:10075200EB210430FB000C30FC003330FD00FD0BBC
:10076200B02BFC0BB02BFB0BB02B00000000703049
:10077200B1000330B2002C30B3000130B400EB21E1
:100782000B30FB002630FC005D30FD00FD0BC72B5B
:10079200FC0BC72BFB0BC72B000000000630A70089
:1007A2000730A8000130A9000130AA0027237008F1
:1007B2000319EC2B3430FC00F130FD00FD0BDF2B74
:1007C200FC0BDF2B000000002108031DEB2B013086
:1007D200A100E622ED2BA1011A30FC00F830FD0049
:0E07E200FD0BF12BFC0BF12B0000CF2BF72BA6
:04400E00F22F000786
:00000001FF
